{
  "_format": "hh-sol-artifact-1",
  "contractName": "Squad",
  "sourceName": "contracts/Squad.sol",
  "abi": [
    {
      "inputs": [
        {
          "internalType": "string",
          "name": "_orgName",
          "type": "string"
        }
      ],
      "stateMutability": "nonpayable",
      "type": "constructor"
    },
    {
      "inputs": [
        {
          "internalType": "address",
          "name": "_employeeAddress",
          "type": "address"
        },
        {
          "internalType": "string",
          "name": "_employeeName",
          "type": "string"
        }
      ],
      "name": "addEmployee",
      "outputs": [],
      "stateMutability": "nonpayable",
      "type": "function"
    },
    {
      "inputs": [
        {
          "internalType": "string",
          "name": "_key",
          "type": "string"
        }
      ],
      "name": "addEmployeePublicKey",
      "outputs": [],
      "stateMutability": "nonpayable",
      "type": "function"
    },
    {
      "inputs": [
        {
          "internalType": "string",
          "name": "_groupName",
          "type": "string"
        },
        {
          "internalType": "address",
          "name": "_employee",
          "type": "address"
        }
      ],
      "name": "addEmployeeToGroup",
      "outputs": [],
      "stateMutability": "nonpayable",
      "type": "function"
    },
    {
      "inputs": [
        {
          "internalType": "string",
          "name": "_groupName",
          "type": "string"
        },
        {
          "internalType": "string",
          "name": "_fileName",
          "type": "string"
        },
        {
          "internalType": "string",
          "name": "_encfilehash",
          "type": "string"
        },
        {
          "internalType": "string",
          "name": "_enckeyshash",
          "type": "string"
        }
      ],
      "name": "addFileToGroup",
      "outputs": [],
      "stateMutability": "nonpayable",
      "type": "function"
    },
    {
      "inputs": [
        {
          "internalType": "string",
          "name": "_groupName",
          "type": "string"
        }
      ],
      "name": "createGroup",
      "outputs": [],
      "stateMutability": "nonpayable",
      "type": "function"
    },
    {
      "inputs": [
        {
          "internalType": "string",
          "name": "_groupName",
          "type": "string"
        },
        {
          "internalType": "address",
          "name": "_employee",
          "type": "address"
        }
      ],
      "name": "deleteEmployeeFromGroup",
      "outputs": [],
      "stateMutability": "nonpayable",
      "type": "function"
    },
    {
      "inputs": [
        {
          "internalType": "uint256",
          "name": "",
          "type": "uint256"
        }
      ],
      "name": "employeeAddrs",
      "outputs": [
        {
          "internalType": "address",
          "name": "",
          "type": "address"
        }
      ],
      "stateMutability": "view",
      "type": "function"
    },
    {
      "inputs": [
        {
          "internalType": "address",
          "name": "",
          "type": "address"
        }
      ],
      "name": "employeeNames",
      "outputs": [
        {
          "internalType": "string",
          "name": "",
          "type": "string"
        }
      ],
      "stateMutability": "view",
      "type": "function"
    },
    {
      "inputs": [
        {
          "internalType": "address",
          "name": "",
          "type": "address"
        }
      ],
      "name": "employeepk",
      "outputs": [
        {
          "internalType": "string",
          "name": "",
          "type": "string"
        }
      ],
      "stateMutability": "view",
      "type": "function"
    },
    {
      "inputs": [],
      "name": "getEmployees",
      "outputs": [
        {
          "components": [
            {
              "internalType": "string",
              "name": "name",
              "type": "string"
            },
            {
              "internalType": "address",
              "name": "addr",
              "type": "address"
            }
          ],
          "internalType": "struct Squad.Employee[]",
          "name": "",
          "type": "tuple[]"
        }
      ],
      "stateMutability": "view",
      "type": "function"
    },
    {
      "inputs": [
        {
          "internalType": "string",
          "name": "_groupName",
          "type": "string"
        }
      ],
      "name": "getEmployeesByGroup",
      "outputs": [
        {
          "components": [
            {
              "internalType": "string",
              "name": "name",
              "type": "string"
            },
            {
              "internalType": "address",
              "name": "addr",
              "type": "address"
            }
          ],
          "internalType": "struct Squad.Employee[]",
          "name": "",
          "type": "tuple[]"
        }
      ],
      "stateMutability": "view",
      "type": "function"
    },
    {
      "inputs": [
        {
          "internalType": "string",
          "name": "_groupName",
          "type": "string"
        }
      ],
      "name": "getFilesByGroup",
      "outputs": [
        {
          "components": [
            {
              "internalType": "string",
              "name": "name",
              "type": "string"
            },
            {
              "internalType": "string",
              "name": "encfilehash",
              "type": "string"
            },
            {
              "internalType": "string",
              "name": "enckeyshash",
              "type": "string"
            }
          ],
          "internalType": "struct Squad.File[]",
          "name": "",
          "type": "tuple[]"
        }
      ],
      "stateMutability": "view",
      "type": "function"
    },
    {
      "inputs": [],
      "name": "getGroupNames",
      "outputs": [
        {
          "internalType": "string[]",
          "name": "",
          "type": "string[]"
        }
      ],
      "stateMutability": "view",
      "type": "function"
    },
    {
      "inputs": [],
      "name": "getOrgDetails",
      "outputs": [
        {
          "internalType": "string",
          "name": "",
          "type": "string"
        },
        {
          "internalType": "address",
          "name": "",
          "type": "address"
        },
        {
          "components": [
            {
              "internalType": "string",
              "name": "name",
              "type": "string"
            },
            {
              "internalType": "address",
              "name": "addr",
              "type": "address"
            }
          ],
          "internalType": "struct Squad.Employee[]",
          "name": "",
          "type": "tuple[]"
        }
      ],
      "stateMutability": "view",
      "type": "function"
    },
    {
      "inputs": [],
      "name": "groupCount",
      "outputs": [
        {
          "internalType": "uint256",
          "name": "",
          "type": "uint256"
        }
      ],
      "stateMutability": "view",
      "type": "function"
    },
    {
      "inputs": [
        {
          "internalType": "uint256",
          "name": "",
          "type": "uint256"
        }
      ],
      "name": "groups",
      "outputs": [
        {
          "internalType": "string",
          "name": "name",
          "type": "string"
        },
        {
          "internalType": "uint256",
          "name": "fileCount",
          "type": "uint256"
        }
      ],
      "stateMutability": "view",
      "type": "function"
    },
    {
      "inputs": [
        {
          "internalType": "address",
          "name": "_employeeAddress",
          "type": "address"
        }
      ],
      "name": "isEmployee",
      "outputs": [
        {
          "internalType": "bool",
          "name": "",
          "type": "bool"
        }
      ],
      "stateMutability": "view",
      "type": "function"
    },
    {
      "inputs": [
        {
          "internalType": "string",
          "name": "_publicKey",
          "type": "string"
        }
      ],
      "name": "setPublicKey",
      "outputs": [],
      "stateMutability": "nonpayable",
      "type": "function"
    }
  ],
  "bytecode": "0x60806040523480156200001157600080fd5b50604051620040233803806200402383398181016040528101906200003791906200026a565b60008151116200007e576040517f08c379a000000000000000000000000000000000000000000000000000000000815260040162000075906200031c565b60405180910390fd5b336000806101000a81548173ffffffffffffffffffffffffffffffffffffffff021916908373ffffffffffffffffffffffffffffffffffffffff1602179055508060019081620000cf919062000589565b505062000670565b6000604051905090565b600080fd5b600080fd5b600080fd5b600080fd5b6000601f19601f8301169050919050565b7f4e487b7100000000000000000000000000000000000000000000000000000000600052604160045260246000fd5b6200014082620000f5565b810181811067ffffffffffffffff8211171562000162576200016162000106565b5b80604052505050565b600062000177620000d7565b905062000185828262000135565b919050565b600067ffffffffffffffff821115620001a857620001a762000106565b5b620001b382620000f5565b9050602081019050919050565b60005b83811015620001e0578082015181840152602081019050620001c3565b60008484015250505050565b600062000203620001fd846200018a565b6200016b565b905082815260208101848484011115620002225762000221620000f0565b5b6200022f848285620001c0565b509392505050565b600082601f8301126200024f576200024e620000eb565b5b815162000261848260208601620001ec565b91505092915050565b600060208284031215620002835762000282620000e1565b5b600082015167ffffffffffffffff811115620002a457620002a3620000e6565b5b620002b28482850162000237565b91505092915050565b600082825260208201905092915050565b7f4f7267616e697a6174696f6e206e616d65206973207265717569726564000000600082015250565b600062000304601d83620002bb565b91506200031182620002cc565b602082019050919050565b600060208201905081810360008301526200033781620002f5565b9050919050565b600081519050919050565b7f4e487b7100000000000000000000000000000000000000000000000000000000600052602260045260246000fd5b600060028204905060018216806200039157607f821691505b602082108103620003a757620003a662000349565b5b50919050565b60008190508160005260206000209050919050565b60006020601f8301049050919050565b600082821b905092915050565b600060088302620004117fffffffffffffffffffffffffffffffffffffffffffffffffffffffffffffffff82620003d2565b6200041d8683620003d2565b95508019841693508086168417925050509392505050565b6000819050919050565b6000819050919050565b60006200046a620004646200045e8462000435565b6200043f565b62000435565b9050919050565b6000819050919050565b620004868362000449565b6200049e620004958262000471565b848454620003df565b825550505050565b600090565b620004b5620004a6565b620004c28184846200047b565b505050565b5b81811015620004ea57620004de600082620004ab565b600181019050620004c8565b5050565b601f82111562000539576200050381620003ad565b6200050e84620003c2565b810160208510156200051e578190505b620005366200052d85620003c2565b830182620004c7565b50505b505050565b600082821c905092915050565b60006200055e600019846008026200053e565b1980831691505092915050565b60006200057983836200054b565b9150826002028217905092915050565b62000594826200033e565b67ffffffffffffffff811115620005b057620005af62000106565b5b620005bc825462000378565b620005c9828285620004ee565b600060209050601f831160018114620006015760008415620005ec578287015190505b620005f885826200056b565b86555062000668565b601f1984166200061186620003ad565b60005b828110156200063b5784890151825560018201915060208501945060208101905062000614565b868310156200065b578489015162000657601f8916826200054b565b8355505b6001600288020188555050505b505050505050565b6139a380620006806000396000f3fe608060405234801561001057600080fd5b50600436106101165760003560e01c8063a352b5db116100a2578063b9b99ad711610071578063b9b99ad7146102f4578063d5f016c314610310578063dc2ddcae1461032e578063ea66543f1461034a578063ee7f4e431461037a57610116565b8063a352b5db14610270578063a502e808146102a0578063a5b2f3f3146102bc578063ac4a36cf146102d857610116565b80636621b623116100e95780636621b623146101a55780636978bba3146101d55780636f6fc077146102055780638f23b3261461022157806396324bd41461023f57610116565b8063067e29d21461011b5780631bb5b1511461013757806343ecb677146101675780634abefa3614610187575b600080fd5b6101356004803603810190610130919061264c565b6103aa565b005b610151600480360381019061014c919061264c565b610488565b60405161015e9190612854565b60405180910390f35b61016f6107d8565b60405161017e939291906128cf565b60405180910390f35b61018f610aa7565b60405161019c9190612854565b60405180910390f35b6101bf60048036038101906101ba919061264c565b610cbd565b6040516101cc9190612a34565b60405180910390f35b6101ef60048036038101906101ea9190612a8c565b61104a565b6040516101fc9190612ab9565b60405180910390f35b61021f600480360381019061021a919061264c565b611089565b005b6102296110d9565b6040516102369190612ae3565b60405180910390f35b61025960048036038101906102549190612a8c565b6110df565b604051610267929190612afe565b60405180910390f35b61028a60048036038101906102859190612b5a565b61119b565b6040516102979190612b87565b60405180910390f35b6102ba60048036038101906102b59190612ba9565b61123b565b005b6102d660048036038101906102d19190612c05565b6114be565b005b6102f260048036038101906102ed9190612c61565b611920565b005b61030e60048036038101906103099190612c05565b611c6d565b005b610318611fd5565b6040516103259190612dfa565b60405180910390f35b6103486004803603810190610343919061264c565b612125565b005b610364600480360381019061035f9190612b5a565b6122f9565b6040516103719190612e37565b60405180910390f35b610394600480360381019061038f9190612b5a565b612401565b6040516103a19190612b87565b60405180910390f35b6000600260003373ffffffffffffffffffffffffffffffffffffffff1673ffffffffffffffffffffffffffffffffffffffff16815260200190815260200160002080546103f690612e81565b905011610438576040517f08c379a000000000000000000000000000000000000000000000000000000000815260040161042f90612efe565b60405180910390fd5b80600460003373ffffffffffffffffffffffffffffffffffffffff1673ffffffffffffffffffffffffffffffffffffffff168152602001908152602001600020908161048491906130ca565b5050565b606060005b600580549050811015610797578280519060200120600582815481106104b6576104b561319c565b5b90600052602060002090600402016001016040516104d4919061326e565b604051809103902003610784576000600582815481106104f7576104f661319c565b5b90600052602060002090600402016002018054905067ffffffffffffffff81111561052557610524612521565b5b60405190808252806020026020018201604052801561055e57816020015b61054b6124a1565b8152602001906001900390816105435790505b50905060005b600583815481106105785761057761319c565b5b90600052602060002090600402016002018054905081101561077957604051806040016040528060026000600587815481106105b7576105b661319c565b5b906000526020600020906004020160020185815481106105da576105d961319c565b5b9060005260206000200160009054906101000a900473ffffffffffffffffffffffffffffffffffffffff1673ffffffffffffffffffffffffffffffffffffffff1673ffffffffffffffffffffffffffffffffffffffff168152602001908152602001600020805461064a90612e81565b80601f016020809104026020016040519081016040528092919081815260200182805461067690612e81565b80156106c35780601f10610698576101008083540402835291602001916106c3565b820191906000526020600020905b8154815290600101906020018083116106a657829003601f168201915b50505050508152602001600585815481106106e1576106e061319c565b5b906000526020600020906004020160020183815481106107045761070361319c565b5b9060005260206000200160009054906101000a900473ffffffffffffffffffffffffffffffffffffffff1673ffffffffffffffffffffffffffffffffffffffff1681525082828151811061075b5761075a61319c565b5b60200260200101819052508080610771906132b4565b915050610564565b5080925050506107d3565b808061078f906132b4565b91505061048d565b506040517f08c379a00000000000000000000000000000000000000000000000000000000081526004016107ca90613348565b60405180910390fd5b919050565b606060006060600060038054905067ffffffffffffffff8111156107ff576107fe612521565b5b60405190808252806020026020018201604052801561083857816020015b6108256124a1565b81526020019060019003908161081d5790505b50905060005b6003805490508110156109ea576040518060400160405280600260006003858154811061086e5761086d61319c565b5b9060005260206000200160009054906101000a900473ffffffffffffffffffffffffffffffffffffffff1673ffffffffffffffffffffffffffffffffffffffff1673ffffffffffffffffffffffffffffffffffffffff16815260200190815260200160002080546108de90612e81565b80601f016020809104026020016040519081016040528092919081815260200182805461090a90612e81565b80156109575780601f1061092c57610100808354040283529160200191610957565b820191906000526020600020905b81548152906001019060200180831161093a57829003601f168201915b50505050508152602001600383815481106109755761097461319c565b5b9060005260206000200160009054906101000a900473ffffffffffffffffffffffffffffffffffffffff1673ffffffffffffffffffffffffffffffffffffffff168152508282815181106109cc576109cb61319c565b5b602002602001018190525080806109e2906132b4565b91505061083e565b50600160008054906101000a900473ffffffffffffffffffffffffffffffffffffffff1682828054610a1b90612e81565b80601f0160208091040260200160405190810160405280929190818152602001828054610a4790612e81565b8015610a945780601f10610a6957610100808354040283529160200191610a94565b820191906000526020600020905b815481529060010190602001808311610a7757829003601f168201915b5050505050925093509350935050909192565b6060600060038054905067ffffffffffffffff811115610aca57610ac9612521565b5b604051908082528060200260200182016040528015610b0357816020015b610af06124a1565b815260200190600190039081610ae85790505b50905060005b600380549050811015610cb55760405180604001604052806002600060038581548110610b3957610b3861319c565b5b9060005260206000200160009054906101000a900473ffffffffffffffffffffffffffffffffffffffff1673ffffffffffffffffffffffffffffffffffffffff1673ffffffffffffffffffffffffffffffffffffffff1681526020019081526020016000208054610ba990612e81565b80601f0160208091040260200160405190810160405280929190818152602001828054610bd590612e81565b8015610c225780601f10610bf757610100808354040283529160200191610c22565b820191906000526020600020905b815481529060010190602001808311610c0557829003601f168201915b5050505050815260200160038381548110610c4057610c3f61319c565b5b9060005260206000200160009054906101000a900473ffffffffffffffffffffffffffffffffffffffff1673ffffffffffffffffffffffffffffffffffffffff16815250828281518110610c9757610c9661319c565b5b60200260200101819052508080610cad906132b4565b915050610b09565b508091505090565b606060005b60058054905081101561100957828051906020012060058281548110610ceb57610cea61319c565b5b9060005260206000209060040201600101604051610d09919061326e565b604051809103902003610ff657600060058281548110610d2c57610d2b61319c565b5b90600052602060002090600402016003015467ffffffffffffffff811115610d5757610d56612521565b5b604051908082528060200260200182016040528015610d9057816020015b610d7d6124d1565b815260200190600190039081610d755790505b50905060005b60058381548110610daa57610da961319c565b5b906000526020600020906004020160030154811015610feb5760058381548110610dd757610dd661319c565b5b90600052602060002090600402016000016000828152602001908152602001600020604051806060016040529081600082018054610e1490612e81565b80601f0160208091040260200160405190810160405280929190818152602001828054610e4090612e81565b8015610e8d5780601f10610e6257610100808354040283529160200191610e8d565b820191906000526020600020905b815481529060010190602001808311610e7057829003601f168201915b50505050508152602001600182018054610ea690612e81565b80601f0160208091040260200160405190810160405280929190818152602001828054610ed290612e81565b8015610f1f5780601f10610ef457610100808354040283529160200191610f1f565b820191906000526020600020905b815481529060010190602001808311610f0257829003601f168201915b50505050508152602001600282018054610f3890612e81565b80601f0160208091040260200160405190810160405280929190818152602001828054610f6490612e81565b8015610fb15780601f10610f8657610100808354040283529160200191610fb1565b820191906000526020600020905b815481529060010190602001808311610f9457829003601f168201915b505050505081525050828281518110610fcd57610fcc61319c565b5b60200260200101819052508080610fe3906132b4565b915050610d96565b508092505050611045565b8080611001906132b4565b915050610cc2565b506040517f08c379a000000000000000000000000000000000000000000000000000000000815260040161103c90613348565b60405180910390fd5b919050565b6003818154811061105a57600080fd5b906000526020600020016000915054906101000a900473ffffffffffffffffffffffffffffffffffffffff1681565b80600460003373ffffffffffffffffffffffffffffffffffffffff1673ffffffffffffffffffffffffffffffffffffffff16815260200190815260200160002090816110d591906130ca565b5050565b60065481565b600581815481106110ef57600080fd5b906000526020600020906004020160009150905080600101805461111290612e81565b80601f016020809104026020016040519081016040528092919081815260200182805461113e90612e81565b801561118b5780601f106111605761010080835404028352916020019161118b565b820191906000526020600020905b81548152906001019060200180831161116e57829003601f168201915b5050505050908060030154905082565b600460205280600052604060002060009150905080546111ba90612e81565b80601f01602080910402602001604051908101604052809291908181526020018280546111e690612e81565b80156112335780601f1061120857610100808354040283529160200191611233565b820191906000526020600020905b81548152906001019060200180831161121657829003601f168201915b505050505081565b60008054906101000a900473ffffffffffffffffffffffffffffffffffffffff1673ffffffffffffffffffffffffffffffffffffffff163373ffffffffffffffffffffffffffffffffffffffff16146112c9576040517f08c379a00000000000000000000000000000000000000000000000000000000081526004016112c0906133b4565b60405180910390fd5b600081511161130d576040517f08c379a000000000000000000000000000000000000000000000000000000000815260040161130490613420565b60405180910390fd5b600073ffffffffffffffffffffffffffffffffffffffff168273ffffffffffffffffffffffffffffffffffffffff160361137c576040517f08c379a00000000000000000000000000000000000000000000000000000000081526004016113739061348c565b60405180910390fd5b6000600260008473ffffffffffffffffffffffffffffffffffffffff1673ffffffffffffffffffffffffffffffffffffffff16815260200190815260200160002080546113c890612e81565b90501461140a576040517f08c379a0000000000000000000000000000000000000000000000000000000008152600401611401906134f8565b60405180910390fd5b6003829080600181540180825580915050600190039060005260206000200160009091909190916101000a81548173ffffffffffffffffffffffffffffffffffffffff021916908373ffffffffffffffffffffffffffffffffffffffff16021790555080600260008473ffffffffffffffffffffffffffffffffffffffff1673ffffffffffffffffffffffffffffffffffffffff16815260200190815260200160002090816114b991906130ca565b505050565b60008054906101000a900473ffffffffffffffffffffffffffffffffffffffff1673ffffffffffffffffffffffffffffffffffffffff163373ffffffffffffffffffffffffffffffffffffffff161461154c576040517f08c379a000000000000000000000000000000000000000000000000000000000815260040161154390613564565b60405180910390fd5b6000600260008373ffffffffffffffffffffffffffffffffffffffff1673ffffffffffffffffffffffffffffffffffffffff168152602001908152602001600020805461159890612e81565b9050116115da576040517f08c379a00000000000000000000000000000000000000000000000000000000081526004016115d190612efe565b60405180910390fd5b60005b6005805490508110156118e0578280519060200120600582815481106116065761160561319c565b5b9060005260206000209060040201600101604051611624919061326e565b6040518091039020036118cd5760005b600582815481106116485761164761319c565b5b906000526020600020906004020160020180549050811015611891578273ffffffffffffffffffffffffffffffffffffffff166005838154811061168f5761168e61319c565b5b906000526020600020906004020160020182815481106116b2576116b161319c565b5b9060005260206000200160009054906101000a900473ffffffffffffffffffffffffffffffffffffffff1673ffffffffffffffffffffffffffffffffffffffff160361187e576005828154811061170c5761170b61319c565b5b90600052602060002090600402016002016001600584815481106117335761173261319c565b5b9060005260206000209060040201600201805490506117529190613584565b815481106117635761176261319c565b5b9060005260206000200160009054906101000a900473ffffffffffffffffffffffffffffffffffffffff16600583815481106117a2576117a161319c565b5b906000526020600020906004020160020182815481106117c5576117c461319c565b5b9060005260206000200160006101000a81548173ffffffffffffffffffffffffffffffffffffffff021916908373ffffffffffffffffffffffffffffffffffffffff160217905550600582815481106118215761182061319c565b5b9060005260206000209060040201600201805480611842576118416135b8565b5b6001900381819060005260206000200160006101000a81549073ffffffffffffffffffffffffffffffffffffffff02191690559055505061191c565b8080611889906132b4565b915050611634565b506040517f08c379a00000000000000000000000000000000000000000000000000000000081526004016118c490613633565b60405180910390fd5b80806118d8906132b4565b9150506115dd565b506040517f08c379a000000000000000000000000000000000000000000000000000000000815260040161191390613348565b60405180910390fd5b5050565b6000600260003373ffffffffffffffffffffffffffffffffffffffff1673ffffffffffffffffffffffffffffffffffffffff168152602001908152602001600020805461196c90612e81565b9050116119ae576040517f08c379a00000000000000000000000000000000000000000000000000000000081526004016119a59061369f565b60405180910390fd5b60005b600580549050811015611c2b578480519060200120600582815481106119da576119d961319c565b5b90600052602060002090600402016001016040516119f8919061326e565b604051809103902003611c185760005b60058281548110611a1c57611a1b61319c565b5b906000526020600020906004020160020180549050811015611bdc573373ffffffffffffffffffffffffffffffffffffffff1660058381548110611a6357611a6261319c565b5b90600052602060002090600402016002018281548110611a8657611a8561319c565b5b9060005260206000200160009054906101000a900473ffffffffffffffffffffffffffffffffffffffff1673ffffffffffffffffffffffffffffffffffffffff1603611bc95760405180606001604052808681526020018581526020018481525060058381548110611afb57611afa61319c565b5b9060005260206000209060040201600001600060058581548110611b2257611b2161319c565b5b90600052602060002090600402016003015481526020019081526020016000206000820151816000019081611b5791906130ca565b506020820151816001019081611b6d91906130ca565b506040820151816002019081611b8391906130ca565b5090505060058281548110611b9b57611b9a61319c565b5b90600052602060002090600402016003016000815480929190611bbd906132b4565b91905055505050611c67565b8080611bd4906132b4565b915050611a08565b506040517f08c379a0000000000000000000000000000000000000000000000000000000008152600401611c0f9061370b565b60405180910390fd5b8080611c23906132b4565b9150506119b1565b506040517f08c379a0000000000000000000000000000000000000000000000000000000008152600401611c5e90613348565b60405180910390fd5b50505050565b60008054906101000a900473ffffffffffffffffffffffffffffffffffffffff1673ffffffffffffffffffffffffffffffffffffffff163373ffffffffffffffffffffffffffffffffffffffff1614611cfb576040517f08c379a0000000000000000000000000000000000000000000000000000000008152600401611cf29061379d565b60405180910390fd5b6000600260008373ffffffffffffffffffffffffffffffffffffffff1673ffffffffffffffffffffffffffffffffffffffff1681526020019081526020016000208054611d4790612e81565b905011611d89576040517f08c379a0000000000000000000000000000000000000000000000000000000008152600401611d8090612efe565b60405180910390fd5b60005b600580549050811015611f9557828051906020012060058281548110611db557611db461319c565b5b9060005260206000209060040201600101604051611dd3919061326e565b604051809103902003611f825760005b60058281548110611df757611df661319c565b5b906000526020600020906004020160020180549050811015611ef5578273ffffffffffffffffffffffffffffffffffffffff1660058381548110611e3e57611e3d61319c565b5b90600052602060002090600402016002018281548110611e6157611e6061319c565b5b9060005260206000200160009054906101000a900473ffffffffffffffffffffffffffffffffffffffff1673ffffffffffffffffffffffffffffffffffffffff1603611ee2576040517f08c379a0000000000000000000000000000000000000000000000000000000008152600401611ed990613809565b60405180910390fd5b8080611eed906132b4565b915050611de3565b5060058181548110611f0a57611f0961319c565b5b9060005260206000209060040201600201829080600181540180825580915050600190039060005260206000200160009091909190916101000a81548173ffffffffffffffffffffffffffffffffffffffff021916908373ffffffffffffffffffffffffffffffffffffffff16021790555050611fd1565b8080611f8d906132b4565b915050611d8c565b506040517f08c379a0000000000000000000000000000000000000000000000000000000008152600401611fc890613348565b60405180910390fd5b5050565b6060600060058054905067ffffffffffffffff811115611ff857611ff7612521565b5b60405190808252806020026020018201604052801561202b57816020015b60608152602001906001900390816120165790505b50905060005b60058054905081101561211d57600581815481106120525761205161319c565b5b9060005260206000209060040201600101805461206e90612e81565b80601f016020809104026020016040519081016040528092919081815260200182805461209a90612e81565b80156120e75780601f106120bc576101008083540402835291602001916120e7565b820191906000526020600020905b8154815290600101906020018083116120ca57829003601f168201915b50505050508282815181106120ff576120fe61319c565b5b60200260200101819052508080612115906132b4565b915050612031565b508091505090565b60008054906101000a900473ffffffffffffffffffffffffffffffffffffffff1673ffffffffffffffffffffffffffffffffffffffff163373ffffffffffffffffffffffffffffffffffffffff16146121b3576040517f08c379a00000000000000000000000000000000000000000000000000000000081526004016121aa90613875565b60405180910390fd5b60008151116121f7576040517f08c379a00000000000000000000000000000000000000000000000000000000081526004016121ee906138e1565b60405180910390fd5b60005b60058054905081101561229c578180519060200120600582815481106122235761222261319c565b5b9060005260206000209060040201600101604051612241919061326e565b604051809103902003612289576040517f08c379a00000000000000000000000000000000000000000000000000000000081526004016122809061394d565b60405180910390fd5b8080612294906132b4565b9150506121fa565b50600060056001816001815401808255809150500390600052602060002090600402019050818160010190816122d291906130ca565b5060008160030181905550600660008154809291906122f0906132b4565b91905055505050565b60008060009054906101000a900473ffffffffffffffffffffffffffffffffffffffff1673ffffffffffffffffffffffffffffffffffffffff168273ffffffffffffffffffffffffffffffffffffffff160361235857600190506123fc565b60005b6003805490508110156123f6578273ffffffffffffffffffffffffffffffffffffffff16600382815481106123935761239261319c565b5b9060005260206000200160009054906101000a900473ffffffffffffffffffffffffffffffffffffffff1673ffffffffffffffffffffffffffffffffffffffff16036123e35760019150506123fc565b80806123ee906132b4565b91505061235b565b50600090505b919050565b6002602052806000526040600020600091509050805461242090612e81565b80601f016020809104026020016040519081016040528092919081815260200182805461244c90612e81565b80156124995780601f1061246e57610100808354040283529160200191612499565b820191906000526020600020905b81548152906001019060200180831161247c57829003601f168201915b505050505081565b604051806040016040528060608152602001600073ffffffffffffffffffffffffffffffffffffffff1681525090565b60405180606001604052806060815260200160608152602001606081525090565b6000604051905090565b600080fd5b600080fd5b600080fd5b600080fd5b6000601f19601f8301169050919050565b7f4e487b7100000000000000000000000000000000000000000000000000000000600052604160045260246000fd5b61255982612510565b810181811067ffffffffffffffff8211171561257857612577612521565b5b80604052505050565b600061258b6124f2565b90506125978282612550565b919050565b600067ffffffffffffffff8211156125b7576125b6612521565b5b6125c082612510565b9050602081019050919050565b82818337600083830152505050565b60006125ef6125ea8461259c565b612581565b90508281526020810184848401111561260b5761260a61250b565b5b6126168482856125cd565b509392505050565b600082601f83011261263357612632612506565b5b81356126438482602086016125dc565b91505092915050565b600060208284031215612662576126616124fc565b5b600082013567ffffffffffffffff8111156126805761267f612501565b5b61268c8482850161261e565b91505092915050565b600081519050919050565b600082825260208201905092915050565b6000819050602082019050919050565b600081519050919050565b600082825260208201905092915050565b60005b838110156126fb5780820151818401526020810190506126e0565b60008484015250505050565b6000612712826126c1565b61271c81856126cc565b935061272c8185602086016126dd565b61273581612510565b840191505092915050565b600073ffffffffffffffffffffffffffffffffffffffff82169050919050565b600061276b82612740565b9050919050565b61277b81612760565b82525050565b6000604083016000830151848203600086015261279e8282612707565b91505060208301516127b36020860182612772565b508091505092915050565b60006127ca8383612781565b905092915050565b6000602082019050919050565b60006127ea82612695565b6127f481856126a0565b935083602082028501612806856126b1565b8060005b85811015612842578484038952815161282385826127be565b945061282e836127d2565b925060208a0199505060018101905061280a565b50829750879550505050505092915050565b6000602082019050818103600083015261286e81846127df565b905092915050565b600082825260208201905092915050565b6000612892826126c1565b61289c8185612876565b93506128ac8185602086016126dd565b6128b581612510565b840191505092915050565b6128c981612760565b82525050565b600060608201905081810360008301526128e98186612887565b90506128f860208301856128c0565b818103604083015261290a81846127df565b9050949350505050565b600081519050919050565b600082825260208201905092915050565b6000819050602082019050919050565b6000606083016000830151848203600086015261295d8282612707565b915050602083015184820360208601526129778282612707565b915050604083015184820360408601526129918282612707565b9150508091505092915050565b60006129aa8383612940565b905092915050565b6000602082019050919050565b60006129ca82612914565b6129d4818561291f565b9350836020820285016129e685612930565b8060005b85811015612a225784840389528151612a03858261299e565b9450612a0e836129b2565b925060208a019950506001810190506129ea565b50829750879550505050505092915050565b60006020820190508181036000830152612a4e81846129bf565b905092915050565b6000819050919050565b612a6981612a56565b8114612a7457600080fd5b50565b600081359050612a8681612a60565b92915050565b600060208284031215612aa257612aa16124fc565b5b6000612ab084828501612a77565b91505092915050565b6000602082019050612ace60008301846128c0565b92915050565b612add81612a56565b82525050565b6000602082019050612af86000830184612ad4565b92915050565b60006040820190508181036000830152612b188185612887565b9050612b276020830184612ad4565b9392505050565b612b3781612760565b8114612b4257600080fd5b50565b600081359050612b5481612b2e565b92915050565b600060208284031215612b7057612b6f6124fc565b5b6000612b7e84828501612b45565b91505092915050565b60006020820190508181036000830152612ba18184612887565b905092915050565b60008060408385031215612bc057612bbf6124fc565b5b6000612bce85828601612b45565b925050602083013567ffffffffffffffff811115612bef57612bee612501565b5b612bfb8582860161261e565b9150509250929050565b60008060408385031215612c1c57612c1b6124fc565b5b600083013567ffffffffffffffff811115612c3a57612c39612501565b5b612c468582860161261e565b9250506020612c5785828601612b45565b9150509250929050565b60008060008060808587031215612c7b57612c7a6124fc565b5b600085013567ffffffffffffffff811115612c9957612c98612501565b5b612ca58782880161261e565b945050602085013567ffffffffffffffff811115612cc657612cc5612501565b5b612cd28782880161261e565b935050604085013567ffffffffffffffff811115612cf357612cf2612501565b5b612cff8782880161261e565b925050606085013567ffffffffffffffff811115612d2057612d1f612501565b5b612d2c8782880161261e565b91505092959194509250565b600081519050919050565b600082825260208201905092915050565b6000819050602082019050919050565b6000612d708383612707565b905092915050565b6000602082019050919050565b6000612d9082612d38565b612d9a8185612d43565b935083602082028501612dac85612d54565b8060005b85811015612de85784840389528151612dc98582612d64565b9450612dd483612d78565b925060208a01995050600181019050612db0565b50829750879550505050505092915050565b60006020820190508181036000830152612e148184612d85565b905092915050565b60008115159050919050565b612e3181612e1c565b82525050565b6000602082019050612e4c6000830184612e28565b92915050565b7f4e487b7100000000000000000000000000000000000000000000000000000000600052602260045260246000fd5b60006002820490506001821680612e9957607f821691505b602082108103612eac57612eab612e52565b5b50919050565b7f456d706c6f79656520646f6573206e6f74206578697374000000000000000000600082015250565b6000612ee8601783612876565b9150612ef382612eb2565b602082019050919050565b60006020820190508181036000830152612f1781612edb565b9050919050565b60008190508160005260206000209050919050565b60006020601f8301049050919050565b600082821b905092915050565b600060088302612f807fffffffffffffffffffffffffffffffffffffffffffffffffffffffffffffffff82612f43565b612f8a8683612f43565b95508019841693508086168417925050509392505050565b6000819050919050565b6000612fc7612fc2612fbd84612a56565b612fa2565b612a56565b9050919050565b6000819050919050565b612fe183612fac565b612ff5612fed82612fce565b848454612f50565b825550505050565b600090565b61300a612ffd565b613015818484612fd8565b505050565b5b818110156130395761302e600082613002565b60018101905061301b565b5050565b601f82111561307e5761304f81612f1e565b61305884612f33565b81016020851015613067578190505b61307b61307385612f33565b83018261301a565b50505b505050565b600082821c905092915050565b60006130a160001984600802613083565b1980831691505092915050565b60006130ba8383613090565b9150826002028217905092915050565b6130d3826126c1565b67ffffffffffffffff8111156130ec576130eb612521565b5b6130f68254612e81565b61310182828561303d565b600060209050601f8311600181146131345760008415613122578287015190505b61312c85826130ae565b865550613194565b601f19841661314286612f1e565b60005b8281101561316a57848901518255600182019150602085019450602081019050613145565b868310156131875784890151613183601f891682613090565b8355505b6001600288020188555050505b505050505050565b7f4e487b7100000000000000000000000000000000000000000000000000000000600052603260045260246000fd5b600081905092915050565b60008190508160005260206000209050919050565b600081546131f881612e81565b61320281866131cb565b9450600182166000811461321d576001811461323257613265565b60ff1983168652811515820286019350613265565b61323b856131d6565b60005b8381101561325d5781548189015260018201915060208101905061323e565b838801955050505b50505092915050565b600061327a82846131eb565b915081905092915050565b7f4e487b7100000000000000000000000000000000000000000000000000000000600052601160045260246000fd5b60006132bf82612a56565b91507fffffffffffffffffffffffffffffffffffffffffffffffffffffffffffffffff82036132f1576132f0613285565b5b600182019050919050565b7f47726f757020646f6573206e6f74206578697374000000000000000000000000600082015250565b6000613332601483612876565b915061333d826132fc565b602082019050919050565b6000602082019050818103600083015261336181613325565b9050919050565b7f4f6e6c792061646d696e2063616e2061646420656d706c6f7965657300000000600082015250565b600061339e601c83612876565b91506133a982613368565b602082019050919050565b600060208201905081810360008301526133cd81613391565b9050919050565b7f456d706c6f796565206e616d652063616e6e6f7420626520656d707479000000600082015250565b600061340a601d83612876565b9150613415826133d4565b602082019050919050565b60006020820190508181036000830152613439816133fd565b9050919050565b7f456d706c6f796565206164647265737320697320726571756972656400000000600082015250565b6000613476601c83612876565b915061348182613440565b602082019050919050565b600060208201905081810360008301526134a581613469565b9050919050565b7f456d706c6f79656520616c726561647920657869737473000000000000000000600082015250565b60006134e2601783612876565b91506134ed826134ac565b602082019050919050565b60006020820190508181036000830152613511816134d5565b9050919050565b7f4f6e6c792061646d696e2063616e2064656c65746520656d706c6f7965657300600082015250565b600061354e601f83612876565b915061355982613518565b602082019050919050565b6000602082019050818103600083015261357d81613541565b9050919050565b600061358f82612a56565b915061359a83612a56565b92508282039050818111156135b2576135b1613285565b5b92915050565b7f4e487b7100000000000000000000000000000000000000000000000000000000600052603160045260246000fd5b7f456d706c6f79656520646f6573206e6f7420657869737420696e2067726f7570600082015250565b600061361d602083612876565b9150613628826135e7565b602082019050919050565b6000602082019050818103600083015261364c81613610565b9050919050565b7f4f6e6c7920656d706c6f796565732063616e206164642066696c657300000000600082015250565b6000613689601c83612876565b915061369482613653565b602082019050919050565b600060208201905081810360008301526136b88161367c565b9050919050565b7f4f6e6c79206d656d626572732063616e206164642066696c6573000000000000600082015250565b60006136f5601a83612876565b9150613700826136bf565b602082019050919050565b60006020820190508181036000830152613724816136e8565b9050919050565b7f4f6e6c792061646d696e2063616e2061646420656d706c6f7965657320746f2060008201527f67726f7570730000000000000000000000000000000000000000000000000000602082015250565b6000613787602683612876565b91506137928261372b565b604082019050919050565b600060208201905081810360008301526137b68161377a565b9050919050565b7f456d706c6f79656520616c72656164792065786973747320696e2067726f7570600082015250565b60006137f3602083612876565b91506137fe826137bd565b602082019050919050565b60006020820190508181036000830152613822816137e6565b9050919050565b7f4f6e6c792061646d696e2063616e206372656174652067726f75707300000000600082015250565b600061385f601c83612876565b915061386a82613829565b602082019050919050565b6000602082019050818103600083015261388e81613852565b9050919050565b7f47726f7570206e616d652063616e6e6f7420626520656d707479000000000000600082015250565b60006138cb601a83612876565b91506138d682613895565b602082019050919050565b600060208201905081810360008301526138fa816138be565b9050919050565b7f47726f757020616c726561647920657869737473000000000000000000000000600082015250565b6000613937601483612876565b915061394282613901565b602082019050919050565b600060208201905081810360008301526139668161392a565b905091905056fea26469706673582212206367f18cfa6f51f686ee978e9b0bbfde3b447f13729508cf3cee4be3f908d20364736f6c63430008110033",
  "linkReferences": {},
  "deployedLinkReferences": {}
}